{
  "address": "0xf420D8CFBF1A3d1686B347DeA09f12899CCBe914",
  "abi": [
    {
      "inputs": [
        {
          "internalType": "address",
          "name": "priceFeedAddress",
          "type": "address"
        },
        {
          "internalType": "uint256",
          "name": "nftPriceInDollar",
          "type": "uint256"
        },
        {
          "internalType": "address",
          "name": "vrfAddress",
          "type": "address"
        },
        {
          "internalType": "uint64",
          "name": "subscriptionId",
          "type": "uint64"
        },
        {
          "internalType": "bytes32",
          "name": "keyHash",
          "type": "bytes32"
        },
        {
          "internalType": "uint16",
          "name": "requestConfirmations",
          "type": "uint16"
        },
        {
          "internalType": "uint32",
          "name": "cbLimit",
          "type": "uint32"
        },
        {
          "internalType": "string[3]",
          "name": "IPFS_Uri",
          "type": "string[3]"
        }
      ],
      "stateMutability": "nonpayable",
      "type": "constructor"
    },
    {
      "inputs": [],
      "name": "Doesnt__Match__Required__Eth",
      "type": "error"
    },
    {
      "inputs": [
        {
          "internalType": "address",
          "name": "sender",
          "type": "address"
        },
        {
          "internalType": "uint256",
          "name": "tokenId",
          "type": "uint256"
        },
        {
          "internalType": "address",
          "name": "owner",
          "type": "address"
        }
      ],
      "name": "ERC721IncorrectOwner",
      "type": "error"
    },
    {
      "inputs": [
        {
          "internalType": "address",
          "name": "operator",
          "type": "address"
        },
        {
          "internalType": "uint256",
          "name": "tokenId",
          "type": "uint256"
        }
      ],
      "name": "ERC721InsufficientApproval",
      "type": "error"
    },
    {
      "inputs": [
        {
          "internalType": "address",
          "name": "approver",
          "type": "address"
        }
      ],
      "name": "ERC721InvalidApprover",
      "type": "error"
    },
    {
      "inputs": [
        {
          "internalType": "address",
          "name": "operator",
          "type": "address"
        }
      ],
      "name": "ERC721InvalidOperator",
      "type": "error"
    },
    {
      "inputs": [
        {
          "internalType": "address",
          "name": "owner",
          "type": "address"
        }
      ],
      "name": "ERC721InvalidOwner",
      "type": "error"
    },
    {
      "inputs": [
        {
          "internalType": "address",
          "name": "receiver",
          "type": "address"
        }
      ],
      "name": "ERC721InvalidReceiver",
      "type": "error"
    },
    {
      "inputs": [
        {
          "internalType": "address",
          "name": "sender",
          "type": "address"
        }
      ],
      "name": "ERC721InvalidSender",
      "type": "error"
    },
    {
      "inputs": [
        {
          "internalType": "uint256",
          "name": "tokenId",
          "type": "uint256"
        }
      ],
      "name": "ERC721NonexistentToken",
      "type": "error"
    },
    {
      "inputs": [
        {
          "internalType": "uint256",
          "name": "chanceNumber",
          "type": "uint256"
        }
      ],
      "name": "Err__Occured__In__Finding__Index",
      "type": "error"
    },
    {
      "inputs": [],
      "name": "Err__Withdrawal__Failed",
      "type": "error"
    },
    {
      "inputs": [
        {
          "internalType": "address",
          "name": "have",
          "type": "address"
        },
        {
          "internalType": "address",
          "name": "want",
          "type": "address"
        }
      ],
      "name": "OnlyCoordinatorCanFulfill",
      "type": "error"
    },
    {
      "inputs": [
        {
          "internalType": "address",
          "name": "owner",
          "type": "address"
        }
      ],
      "name": "OwnableInvalidOwner",
      "type": "error"
    },
    {
      "inputs": [
        {
          "internalType": "address",
          "name": "account",
          "type": "address"
        }
      ],
      "name": "OwnableUnauthorizedAccount",
      "type": "error"
    },
    {
      "anonymous": false,
      "inputs": [
        {
          "indexed": true,
          "internalType": "address",
          "name": "owner",
          "type": "address"
        },
        {
          "indexed": true,
          "internalType": "address",
          "name": "approved",
          "type": "address"
        },
        {
          "indexed": true,
          "internalType": "uint256",
          "name": "tokenId",
          "type": "uint256"
        }
      ],
      "name": "Approval",
      "type": "event"
    },
    {
      "anonymous": false,
      "inputs": [
        {
          "indexed": true,
          "internalType": "address",
          "name": "owner",
          "type": "address"
        },
        {
          "indexed": true,
          "internalType": "address",
          "name": "operator",
          "type": "address"
        },
        {
          "indexed": false,
          "internalType": "bool",
          "name": "approved",
          "type": "bool"
        }
      ],
      "name": "ApprovalForAll",
      "type": "event"
    },
    {
      "anonymous": false,
      "inputs": [
        {
          "indexed": false,
          "internalType": "uint256",
          "name": "_fromTokenId",
          "type": "uint256"
        },
        {
          "indexed": false,
          "internalType": "uint256",
          "name": "_toTokenId",
          "type": "uint256"
        }
      ],
      "name": "BatchMetadataUpdate",
      "type": "event"
    },
    {
      "anonymous": false,
      "inputs": [
        {
          "indexed": false,
          "internalType": "uint256",
          "name": "requestId",
          "type": "uint256"
        }
      ],
      "name": "Evt__Request_Id",
      "type": "event"
    },
    {
      "anonymous": false,
      "inputs": [
        {
          "indexed": false,
          "internalType": "uint256",
          "name": "_tokenId",
          "type": "uint256"
        }
      ],
      "name": "MetadataUpdate",
      "type": "event"
    },
    {
      "anonymous": false,
      "inputs": [
        {
          "indexed": false,
          "internalType": "address",
          "name": "minterAddress",
          "type": "address"
        },
        {
          "indexed": false,
          "internalType": "uint256",
          "name": "s_tokenId",
          "type": "uint256"
        },
        {
          "indexed": false,
          "internalType": "string",
          "name": "uri",
          "type": "string"
        }
      ],
      "name": "NftMinted",
      "type": "event"
    },
    {
      "anonymous": false,
      "inputs": [
        {
          "indexed": true,
          "internalType": "address",
          "name": "previousOwner",
          "type": "address"
        },
        {
          "indexed": true,
          "internalType": "address",
          "name": "newOwner",
          "type": "address"
        }
      ],
      "name": "OwnershipTransferred",
      "type": "event"
    },
    {
      "anonymous": false,
      "inputs": [
        {
          "indexed": true,
          "internalType": "address",
          "name": "from",
          "type": "address"
        },
        {
          "indexed": true,
          "internalType": "address",
          "name": "to",
          "type": "address"
        },
        {
          "indexed": true,
          "internalType": "uint256",
          "name": "tokenId",
          "type": "uint256"
        }
      ],
      "name": "Transfer",
      "type": "event"
    },
    {
      "stateMutability": "payable",
      "type": "fallback"
    },
    {
      "inputs": [
        {
          "internalType": "address",
          "name": "to",
          "type": "address"
        },
        {
          "internalType": "uint256",
          "name": "tokenId",
          "type": "uint256"
        }
      ],
      "name": "approve",
      "outputs": [],
      "stateMutability": "nonpayable",
      "type": "function"
    },
    {
      "inputs": [
        {
          "internalType": "address",
          "name": "owner",
          "type": "address"
        }
      ],
      "name": "balanceOf",
      "outputs": [
        {
          "internalType": "uint256",
          "name": "",
          "type": "uint256"
        }
      ],
      "stateMutability": "view",
      "type": "function"
    },
    {
      "inputs": [],
      "name": "currentBalanceInUSD",
      "outputs": [
        {
          "internalType": "uint256",
          "name": "",
          "type": "uint256"
        }
      ],
      "stateMutability": "view",
      "type": "function"
    },
    {
      "inputs": [
        {
          "internalType": "uint256",
          "name": "tokenId",
          "type": "uint256"
        }
      ],
      "name": "getApproved",
      "outputs": [
        {
          "internalType": "address",
          "name": "",
          "type": "address"
        }
      ],
      "stateMutability": "view",
      "type": "function"
    },
    {
      "inputs": [],
      "name": "getNFTDetails",
      "outputs": [
        {
          "internalType": "uint256",
          "name": "",
          "type": "uint256"
        },
        {
          "internalType": "uint256",
          "name": "",
          "type": "uint256"
        },
        {
          "internalType": "address",
          "name": "",
          "type": "address"
        }
      ],
      "stateMutability": "view",
      "type": "function"
    },
    {
      "inputs": [
        {
          "internalType": "address",
          "name": "owner",
          "type": "address"
        },
        {
          "internalType": "address",
          "name": "operator",
          "type": "address"
        }
      ],
      "name": "isApprovedForAll",
      "outputs": [
        {
          "internalType": "bool",
          "name": "",
          "type": "bool"
        }
      ],
      "stateMutability": "view",
      "type": "function"
    },
    {
      "inputs": [],
      "name": "name",
      "outputs": [
        {
          "internalType": "string",
          "name": "",
          "type": "string"
        }
      ],
      "stateMutability": "view",
      "type": "function"
    },
    {
      "inputs": [],
      "name": "owner",
      "outputs": [
        {
          "internalType": "address",
          "name": "",
          "type": "address"
        }
      ],
      "stateMutability": "view",
      "type": "function"
    },
    {
      "inputs": [
        {
          "internalType": "uint256",
          "name": "tokenId",
          "type": "uint256"
        }
      ],
      "name": "ownerOf",
      "outputs": [
        {
          "internalType": "address",
          "name": "",
          "type": "address"
        }
      ],
      "stateMutability": "view",
      "type": "function"
    },
    {
      "inputs": [
        {
          "internalType": "uint256",
          "name": "requestId",
          "type": "uint256"
        },
        {
          "internalType": "uint256[]",
          "name": "randomWords",
          "type": "uint256[]"
        }
      ],
      "name": "rawFulfillRandomWords",
      "outputs": [],
      "stateMutability": "nonpayable",
      "type": "function"
    },
    {
      "inputs": [],
      "name": "renounceOwnership",
      "outputs": [],
      "stateMutability": "nonpayable",
      "type": "function"
    },
    {
      "inputs": [],
      "name": "requestForMinting",
      "outputs": [],
      "stateMutability": "payable",
      "type": "function"
    },
    {
      "inputs": [
        {
          "internalType": "address",
          "name": "from",
          "type": "address"
        },
        {
          "internalType": "address",
          "name": "to",
          "type": "address"
        },
        {
          "internalType": "uint256",
          "name": "tokenId",
          "type": "uint256"
        }
      ],
      "name": "safeTransferFrom",
      "outputs": [],
      "stateMutability": "nonpayable",
      "type": "function"
    },
    {
      "inputs": [
        {
          "internalType": "address",
          "name": "from",
          "type": "address"
        },
        {
          "internalType": "address",
          "name": "to",
          "type": "address"
        },
        {
          "internalType": "uint256",
          "name": "tokenId",
          "type": "uint256"
        },
        {
          "internalType": "bytes",
          "name": "data",
          "type": "bytes"
        }
      ],
      "name": "safeTransferFrom",
      "outputs": [],
      "stateMutability": "nonpayable",
      "type": "function"
    },
    {
      "inputs": [
        {
          "internalType": "address",
          "name": "operator",
          "type": "address"
        },
        {
          "internalType": "bool",
          "name": "approved",
          "type": "bool"
        }
      ],
      "name": "setApprovalForAll",
      "outputs": [],
      "stateMutability": "nonpayable",
      "type": "function"
    },
    {
      "inputs": [
        {
          "internalType": "bytes4",
          "name": "interfaceId",
          "type": "bytes4"
        }
      ],
      "name": "supportsInterface",
      "outputs": [
        {
          "internalType": "bool",
          "name": "",
          "type": "bool"
        }
      ],
      "stateMutability": "view",
      "type": "function"
    },
    {
      "inputs": [],
      "name": "symbol",
      "outputs": [
        {
          "internalType": "string",
          "name": "",
          "type": "string"
        }
      ],
      "stateMutability": "view",
      "type": "function"
    },
    {
      "inputs": [
        {
          "internalType": "uint256",
          "name": "tokenId",
          "type": "uint256"
        }
      ],
      "name": "tokenURI",
      "outputs": [
        {
          "internalType": "string",
          "name": "",
          "type": "string"
        }
      ],
      "stateMutability": "view",
      "type": "function"
    },
    {
      "inputs": [
        {
          "internalType": "address",
          "name": "from",
          "type": "address"
        },
        {
          "internalType": "address",
          "name": "to",
          "type": "address"
        },
        {
          "internalType": "uint256",
          "name": "tokenId",
          "type": "uint256"
        }
      ],
      "name": "transferFrom",
      "outputs": [],
      "stateMutability": "nonpayable",
      "type": "function"
    },
    {
      "inputs": [
        {
          "internalType": "address",
          "name": "newOwner",
          "type": "address"
        }
      ],
      "name": "transferOwnership",
      "outputs": [],
      "stateMutability": "nonpayable",
      "type": "function"
    },
    {
      "inputs": [],
      "name": "withdraw",
      "outputs": [],
      "stateMutability": "nonpayable",
      "type": "function"
    },
    {
      "stateMutability": "payable",
      "type": "receive"
    }
  ],
  "transactionHash": "0xc0f53210c0a0177738eefaf152d6e50c8f61f6efd52a3471c5d00f9ef3474f1f",
  "args": [
    "0x694AA1769357215DE4FAC081bf1f309aDC325306",
    "1",
    "0x8103B0A8A00be2DDC778e6e7eaa21791Cd364625",
    "8275",
    "0x474e34a077df58807dbe9c96d3c009b23b3c6d0cce433e59bbf5b34f823bc56c",
    "3",
    "100000",
    [
      "ipfs://QmaVkBn2tKmjbhphU7eyztbvSQU5EXDdqRyXZtRhSGgJGo",
      "ipfs://QmYQC5aGZu2PTH8XzbJrbDnvhj3gVs7ya33H9mqUNvST3d",
      "ipfs://QmZYmH5iDbD6v3U2ixoVAjioSzvWJszDzYdbeCLquGSpVm"
    ]
  ],
  "numDeployments": 1,
  "solcInputHash": "636f06df5be6f7c063efd91dffd7160d",
  "bytecode": "0x6101806040523480156200001257600080fd5b506040516200419c3803806200419c833981810160405281019062000038919062000831565b336040518060400160405280600981526020017f52616e646f6d4e465400000000000000000000000000000000000000000000008152506040518060400160405280600581526020017f52494e4654000000000000000000000000000000000000000000000000000000815250888073ffffffffffffffffffffffffffffffffffffffff1660808173ffffffffffffffffffffffffffffffffffffffff1681525050508160009081620000ec919062000b5a565b508060019081620000fe919062000b5a565b505050600073ffffffffffffffffffffffffffffffffffffffff168173ffffffffffffffffffffffffffffffffffffffff1603620001765760006040517f1e4fbdf70000000000000000000000000000000000000000000000000000000081526004016200016d919062000c52565b60405180910390fd5b62000187816200026e60201b60201c565b508773ffffffffffffffffffffffffffffffffffffffff1660a08173ffffffffffffffffffffffffffffffffffffffff16815250508660c081815250508573ffffffffffffffffffffffffffffffffffffffff1660e08173ffffffffffffffffffffffffffffffffffffffff16815250508467ffffffffffffffff166101608167ffffffffffffffff16815250508361010081815250508261ffff166101408161ffff16815250508163ffffffff166101208163ffffffff1681525050600060098190555080600a9060036200025f92919062000334565b50505050505050505062000c6f565b6000600760009054906101000a900473ffffffffffffffffffffffffffffffffffffffff16905081600760006101000a81548173ffffffffffffffffffffffffffffffffffffffff021916908373ffffffffffffffffffffffffffffffffffffffff1602179055508173ffffffffffffffffffffffffffffffffffffffff168173ffffffffffffffffffffffffffffffffffffffff167f8be0079c531659141344cd1fd0a4f28419497f9722a3daafe3b4186f6b6457e060405160405180910390a35050565b826003810192821562000374579160200282015b828111156200037357825182908162000362919062000b5a565b509160200191906001019062000348565b5b50905062000383919062000387565b5090565b5b80821115620003ab5760008181620003a19190620003af565b5060010162000388565b5090565b508054620003bd9062000953565b6000825580601f10620003d15750620003f2565b601f016020900490600052602060002090810190620003f19190620003f5565b5b50565b5b8082111562000410576000816000905550600101620003f6565b5090565b6000604051905090565b600080fd5b600080fd5b600073ffffffffffffffffffffffffffffffffffffffff82169050919050565b6000620004558262000428565b9050919050565b620004678162000448565b81146200047357600080fd5b50565b60008151905062000487816200045c565b92915050565b6000819050919050565b620004a2816200048d565b8114620004ae57600080fd5b50565b600081519050620004c28162000497565b92915050565b600067ffffffffffffffff82169050919050565b620004e781620004c8565b8114620004f357600080fd5b50565b6000815190506200050781620004dc565b92915050565b6000819050919050565b62000522816200050d565b81146200052e57600080fd5b50565b600081519050620005428162000517565b92915050565b600061ffff82169050919050565b620005618162000548565b81146200056d57600080fd5b50565b600081519050620005818162000556565b92915050565b600063ffffffff82169050919050565b620005a28162000587565b8114620005ae57600080fd5b50565b600081519050620005c28162000597565b92915050565b600080fd5b6000601f19601f8301169050919050565b7f4e487b7100000000000000000000000000000000000000000000000000000000600052604160045260246000fd5b6200061882620005cd565b810181811067ffffffffffffffff821117156200063a5762000639620005de565b5b80604052505050565b60006200064f62000414565b90506200065d82826200060d565b919050565b600067ffffffffffffffff82111562000680576200067f620005de565b5b602082029050919050565b600080fd5b600080fd5b600067ffffffffffffffff821115620006b357620006b2620005de565b5b620006be82620005cd565b9050602081019050919050565b60005b83811015620006eb578082015181840152602081019050620006ce565b60008484015250505050565b60006200070e620007088462000695565b62000643565b9050828152602081018484840111156200072d576200072c62000690565b5b6200073a848285620006cb565b509392505050565b600082601f8301126200075a5762000759620005c8565b5b81516200076c848260208601620006f7565b91505092915050565b60006200078c620007868462000662565b62000643565b90508060208402830185811115620007a957620007a86200068b565b5b835b81811015620007f757805167ffffffffffffffff811115620007d257620007d1620005c8565b5b808601620007e1898262000742565b85526020850194505050602081019050620007ab565b5050509392505050565b600082601f830112620008195762000818620005c8565b5b60036200082884828562000775565b91505092915050565b600080600080600080600080610100898b0312156200085557620008546200041e565b5b6000620008658b828c0162000476565b9850506020620008788b828c01620004b1565b97505060406200088b8b828c0162000476565b96505060606200089e8b828c01620004f6565b9550506080620008b18b828c0162000531565b94505060a0620008c48b828c0162000570565b93505060c0620008d78b828c01620005b1565b92505060e089015167ffffffffffffffff811115620008fb57620008fa62000423565b5b620009098b828c0162000801565b9150509295985092959890939650565b600081519050919050565b7f4e487b7100000000000000000000000000000000000000000000000000000000600052602260045260246000fd5b600060028204905060018216806200096c57607f821691505b60208210810362000982576200098162000924565b5b50919050565b60008190508160005260206000209050919050565b60006020601f8301049050919050565b600082821b905092915050565b600060088302620009ec7fffffffffffffffffffffffffffffffffffffffffffffffffffffffffffffffff82620009ad565b620009f88683620009ad565b95508019841693508086168417925050509392505050565b6000819050919050565b600062000a3b62000a3562000a2f846200048d565b62000a10565b6200048d565b9050919050565b6000819050919050565b62000a578362000a1a565b62000a6f62000a668262000a42565b848454620009ba565b825550505050565b600090565b62000a8662000a77565b62000a9381848462000a4c565b505050565b5b8181101562000abb5762000aaf60008262000a7c565b60018101905062000a99565b5050565b601f82111562000b0a5762000ad48162000988565b62000adf846200099d565b8101602085101562000aef578190505b62000b0762000afe856200099d565b83018262000a98565b50505b505050565b600082821c905092915050565b600062000b2f6000198460080262000b0f565b1980831691505092915050565b600062000b4a838362000b1c565b9150826002028217905092915050565b62000b658262000919565b67ffffffffffffffff81111562000b815762000b80620005de565b5b62000b8d825462000953565b62000b9a82828562000abf565b600060209050601f83116001811462000bd2576000841562000bbd578287015190505b62000bc9858262000b3c565b86555062000c39565b601f19841662000be28662000988565b60005b8281101562000c0c5784890151825560018201915060208501945060208101905062000be5565b8683101562000c2c578489015162000c28601f89168262000b1c565b8355505b6001600288020188555050505b505050505050565b62000c4c8162000448565b82525050565b600060208201905062000c69600083018462000c41565b92915050565b60805160a05160c05160e051610100516101205161014051610160516134a462000cf860003960006105d6015260006105f701526000610618015260006105b50152600061057901526000818161050d01528181610caf0152610ced0152600081816104ec01528181610c8e0152610e7101526000818161085201526108a601526134a46000f3fe60806040526004361061012e5760003560e01c806370a08231116100ab578063a22cb4651161006f578063a22cb465146103c5578063b88d4fde146103ee578063c87b56dd14610417578063e8b29bd814610454578063e985e9c51461047f578063f2fde38b146104bc5761013d565b806370a08231146102ee578063715018a61461032b5780638da5cb5b1461034257806395d89b411461036d578063a16e4a19146103985761013d565b806323b872dd116100f257806323b872dd1461023e5780633ccfd60b1461026757806342842e0e1461027e5780634fc32fb4146102a75780636352211e146102b15761013d565b806301ffc9a71461014757806306fdde0314610184578063081812fc146101af578063095ea7b3146101ec5780631fe543e3146102155761013d565b3661013d5761013b6104e5565b005b6101456104e5565b005b34801561015357600080fd5b5061016e60048036038101906101699190612436565b61072b565b60405161017b919061247e565b60405180910390f35b34801561019057600080fd5b5061019961078c565b6040516101a69190612529565b60405180910390f35b3480156101bb57600080fd5b506101d660048036038101906101d19190612581565b61081e565b6040516101e391906125ef565b60405180910390f35b3480156101f857600080fd5b50610213600480360381019061020e9190612636565b61083a565b005b34801561022157600080fd5b5061023c600480360381019061023791906127be565b610850565b005b34801561024a57600080fd5b506102656004803603810190610260919061281a565b610910565b005b34801561027357600080fd5b5061027c610a12565b005b34801561028a57600080fd5b506102a560048036038101906102a0919061281a565b610ac7565b005b6102af6104e5565b005b3480156102bd57600080fd5b506102d860048036038101906102d39190612581565b610ae7565b6040516102e591906125ef565b60405180910390f35b3480156102fa57600080fd5b506103156004803603810190610310919061286d565b610af9565b60405161032291906128a9565b60405180910390f35b34801561033757600080fd5b50610340610bb3565b005b34801561034e57600080fd5b50610357610bc7565b60405161036491906125ef565b60405180910390f35b34801561037957600080fd5b50610382610bf1565b60405161038f9190612529565b60405180910390f35b3480156103a457600080fd5b506103ad610c83565b6040516103bc939291906128c4565b60405180910390f35b3480156103d157600080fd5b506103ec60048036038101906103e79190612927565b610d1a565b005b3480156103fa57600080fd5b5061041560048036038101906104109190612a1c565b610d30565b005b34801561042357600080fd5b5061043e60048036038101906104399190612581565b610d4d565b60405161044b9190612529565b60405180910390f35b34801561046057600080fd5b50610469610e60565b60405161047691906128a9565b60405180910390f35b34801561048b57600080fd5b506104a660048036038101906104a19190612a9f565b610ea8565b6040516104b3919061247e565b60405180910390f35b3480156104c857600080fd5b506104e360048036038101906104de919061286d565b610f3c565b005b600061053a7f00000000000000000000000000000000000000000000000000000000000000007f0000000000000000000000000000000000000000000000000000000000000000610fc290919063ffffffff16565b9050348114610575576040517febd6143a00000000000000000000000000000000000000000000000000000000815260040160405180910390fd5b60007f000000000000000000000000000000000000000000000000000000000000000073ffffffffffffffffffffffffffffffffffffffff16635d3b1d307f00000000000000000000000000000000000000000000000000000000000000007f00000000000000000000000000000000000000000000000000000000000000007f00000000000000000000000000000000000000000000000000000000000000007f000000000000000000000000000000000000000000000000000000000000000060016040518663ffffffff1660e01b8152600401610659959493929190612b57565b6020604051808303816000875af1158015610678573d6000803e3d6000fd5b505050506040513d601f19601f8201168201806040525081019061069c9190612bbf565b9050336008600083815260200190815260200160002060006101000a81548173ffffffffffffffffffffffffffffffffffffffff021916908373ffffffffffffffffffffffffffffffffffffffff1602179055507fa11b0a1d3326603ec81cd310c0bc5e6b8fd4f1769fb461df83b516ab51db2c428160405161071f91906128a9565b60405180910390a15050565b6000634906490660e01b7bffffffffffffffffffffffffffffffffffffffffffffffffffffffff1916827bffffffffffffffffffffffffffffffffffffffffffffffffffffffff19161480610785575061078482611011565b5b9050919050565b60606000805461079b90612c1b565b80601f01602080910402602001604051908101604052809291908181526020018280546107c790612c1b565b80156108145780601f106107e957610100808354040283529160200191610814565b820191906000526020600020905b8154815290600101906020018083116107f757829003601f168201915b5050505050905090565b6000610829826110f3565b506108338261117b565b9050919050565b61084c82826108476111b8565b6111c0565b5050565b7f000000000000000000000000000000000000000000000000000000000000000073ffffffffffffffffffffffffffffffffffffffff163373ffffffffffffffffffffffffffffffffffffffff161461090257337f00000000000000000000000000000000000000000000000000000000000000006040517f1cf993f40000000000000000000000000000000000000000000000000000000081526004016108f9929190612c4c565b60405180910390fd5b61090c82826111d2565b5050565b600073ffffffffffffffffffffffffffffffffffffffff168273ffffffffffffffffffffffffffffffffffffffff16036109825760006040517f64a0ae9200000000000000000000000000000000000000000000000000000000815260040161097991906125ef565b60405180910390fd5b600061099683836109916111b8565b61136d565b90508373ffffffffffffffffffffffffffffffffffffffff168173ffffffffffffffffffffffffffffffffffffffff1614610a0c578382826040517f64283d7b000000000000000000000000000000000000000000000000000000008152600401610a0393929190612c75565b60405180910390fd5b50505050565b610a1a611587565b600047905060003373ffffffffffffffffffffffffffffffffffffffff1682604051610a4590612cdd565b60006040518083038185875af1925050503d8060008114610a82576040519150601f19603f3d011682016040523d82523d6000602084013e610a87565b606091505b505090508015610ac3576040517fcee14eb400000000000000000000000000000000000000000000000000000000815260040160405180910390fd5b5050565b610ae283838360405180602001604052806000815250610d30565b505050565b6000610af2826110f3565b9050919050565b60008073ffffffffffffffffffffffffffffffffffffffff168273ffffffffffffffffffffffffffffffffffffffff1603610b6c5760006040517f89c62b64000000000000000000000000000000000000000000000000000000008152600401610b6391906125ef565b60405180910390fd5b600360008373ffffffffffffffffffffffffffffffffffffffff1673ffffffffffffffffffffffffffffffffffffffff168152602001908152602001600020549050919050565b610bbb611587565b610bc5600061160e565b565b6000600760009054906101000a900473ffffffffffffffffffffffffffffffffffffffff16905090565b606060018054610c0090612c1b565b80601f0160208091040260200160405190810160405280929190818152602001828054610c2c90612c1b565b8015610c795780601f10610c4e57610100808354040283529160200191610c79565b820191906000526020600020905b815481529060010190602001808311610c5c57829003601f168201915b5050505050905090565b600080600080610cdc7f00000000000000000000000000000000000000000000000000000000000000007f0000000000000000000000000000000000000000000000000000000000000000610fc290919063ffffffff16565b90506000610ce8610bc7565b9050817f0000000000000000000000000000000000000000000000000000000000000000829450945094505050909192565b610d2c610d256111b8565b83836116d4565b5050565b610d3b848484610910565b610d4784848484611843565b50505050565b6060610d58826110f3565b506000600660008481526020019081526020016000208054610d7990612c1b565b80601f0160208091040260200160405190810160405280929190818152602001828054610da590612c1b565b8015610df25780601f10610dc757610100808354040283529160200191610df2565b820191906000526020600020905b815481529060010190602001808311610dd557829003601f168201915b505050505090506000610e036119fa565b90506000815103610e18578192505050610e5b565b600082511115610e4d578082604051602001610e35929190612d2e565b60405160208183030381529060405292505050610e5b565b610e5684611a11565b925050505b919050565b6000610e6a611587565b6000610e9f7f000000000000000000000000000000000000000000000000000000000000000047611a7a90919063ffffffff16565b90508091505090565b6000600560008473ffffffffffffffffffffffffffffffffffffffff1673ffffffffffffffffffffffffffffffffffffffff16815260200190815260200160002060008373ffffffffffffffffffffffffffffffffffffffff1673ffffffffffffffffffffffffffffffffffffffff16815260200190815260200160002060009054906101000a900460ff16905092915050565b610f44611587565b600073ffffffffffffffffffffffffffffffffffffffff168173ffffffffffffffffffffffffffffffffffffffff1603610fb65760006040517f1e4fbdf7000000000000000000000000000000000000000000000000000000008152600401610fad91906125ef565b60405180910390fd5b610fbf8161160e565b50565b600080610fce83611ab0565b90506000670de0b6b3a764000085610fe69190612d81565b905081670de0b6b3a764000082610ffd9190612d81565b6110079190612df2565b9250505092915050565b60007f80ac58cd000000000000000000000000000000000000000000000000000000007bffffffffffffffffffffffffffffffffffffffffffffffffffffffff1916827bffffffffffffffffffffffffffffffffffffffffffffffffffffffff191614806110dc57507f5b5e139f000000000000000000000000000000000000000000000000000000007bffffffffffffffffffffffffffffffffffffffffffffffffffffffff1916827bffffffffffffffffffffffffffffffffffffffffffffffffffffffff1916145b806110ec57506110eb82611b41565b5b9050919050565b6000806110ff83611bab565b9050600073ffffffffffffffffffffffffffffffffffffffff168173ffffffffffffffffffffffffffffffffffffffff160361117257826040517f7e27328900000000000000000000000000000000000000000000000000000000815260040161116991906128a9565b60405180910390fd5b80915050919050565b60006004600083815260200190815260200160002060009054906101000a900473ffffffffffffffffffffffffffffffffffffffff169050919050565b600033905090565b6111cd8383836001611be8565b505050565b60006008600084815260200190815260200160002060009054906101000a900473ffffffffffffffffffffffffffffffffffffffff16905060016009600082825461121d9190612e23565b925050819055506000606460ff168360008151811061123f5761123e612e57565b5b60200260200101516112519190612e86565b9050600061125e82611dad565b905061126c83600954611e95565b611315600954600a836003811061128657611285612e57565b5b01805461129290612c1b565b80601f01602080910402602001604051908101604052809291908181526020018280546112be90612c1b565b801561130b5780601f106112e05761010080835404028352916020019161130b565b820191906000526020600020905b8154815290600101906020018083116112ee57829003601f168201915b5050505050611eb3565b7f8e503b21c99b65aca8c7496e1574773871f0a73bf9262e58fb99528b46fd776a83600954600a846003811061134e5761134d612e57565b5b0160405161135e93929190612f50565b60405180910390a15050505050565b60008061137984611bab565b9050600073ffffffffffffffffffffffffffffffffffffffff168373ffffffffffffffffffffffffffffffffffffffff16146113bb576113ba818486611f0f565b5b600073ffffffffffffffffffffffffffffffffffffffff168173ffffffffffffffffffffffffffffffffffffffff161461144c576113fd600085600080611be8565b6001600360008373ffffffffffffffffffffffffffffffffffffffff1673ffffffffffffffffffffffffffffffffffffffff168152602001908152602001600020600082825403925050819055505b600073ffffffffffffffffffffffffffffffffffffffff168573ffffffffffffffffffffffffffffffffffffffff16146114cf576001600360008773ffffffffffffffffffffffffffffffffffffffff1673ffffffffffffffffffffffffffffffffffffffff168152602001908152602001600020600082825401925050819055505b846002600086815260200190815260200160002060006101000a81548173ffffffffffffffffffffffffffffffffffffffff021916908373ffffffffffffffffffffffffffffffffffffffff160217905550838573ffffffffffffffffffffffffffffffffffffffff168273ffffffffffffffffffffffffffffffffffffffff167fddf252ad1be2c89b69c2b068fc378daa952ba7f163c4a11628f55a4df523b3ef60405160405180910390a4809150509392505050565b61158f6111b8565b73ffffffffffffffffffffffffffffffffffffffff166115ad610bc7565b73ffffffffffffffffffffffffffffffffffffffff161461160c576115d06111b8565b6040517f118cdaa700000000000000000000000000000000000000000000000000000000815260040161160391906125ef565b60405180910390fd5b565b6000600760009054906101000a900473ffffffffffffffffffffffffffffffffffffffff16905081600760006101000a81548173ffffffffffffffffffffffffffffffffffffffff021916908373ffffffffffffffffffffffffffffffffffffffff1602179055508173ffffffffffffffffffffffffffffffffffffffff168173ffffffffffffffffffffffffffffffffffffffff167f8be0079c531659141344cd1fd0a4f28419497f9722a3daafe3b4186f6b6457e060405160405180910390a35050565b600073ffffffffffffffffffffffffffffffffffffffff168273ffffffffffffffffffffffffffffffffffffffff160361174557816040517f5b08ba1800000000000000000000000000000000000000000000000000000000815260040161173c91906125ef565b60405180910390fd5b80600560008573ffffffffffffffffffffffffffffffffffffffff1673ffffffffffffffffffffffffffffffffffffffff16815260200190815260200160002060008473ffffffffffffffffffffffffffffffffffffffff1673ffffffffffffffffffffffffffffffffffffffff16815260200190815260200160002060006101000a81548160ff0219169083151502179055508173ffffffffffffffffffffffffffffffffffffffff168373ffffffffffffffffffffffffffffffffffffffff167f17307eab39ab6107e8899845ad3d59bd9653f200f220920489ca2b5937696c3183604051611836919061247e565b60405180910390a3505050565b60008373ffffffffffffffffffffffffffffffffffffffff163b11156119f4578273ffffffffffffffffffffffffffffffffffffffff1663150b7a026118876111b8565b8685856040518563ffffffff1660e01b81526004016118a99493929190612fe3565b6020604051808303816000875af19250505080156118e557506040513d601f19601f820116820180604052508101906118e29190613044565b60015b611969573d8060008114611915576040519150601f19603f3d011682016040523d82523d6000602084013e61191a565b606091505b50600081510361196157836040517f64a0ae9200000000000000000000000000000000000000000000000000000000815260040161195891906125ef565b60405180910390fd5b805181602001fd5b63150b7a0260e01b7bffffffffffffffffffffffffffffffffffffffffffffffffffffffff1916817bffffffffffffffffffffffffffffffffffffffffffffffffffffffff1916146119f257836040517f64a0ae920000000000000000000000000000000000000000000000000000000081526004016119e991906125ef565b60405180910390fd5b505b50505050565b606060405180602001604052806000815250905090565b6060611a1c826110f3565b506000611a276119fa565b90506000815111611a475760405180602001604052806000815250611a72565b80611a5184611fd3565b604051602001611a62929190612d2e565b6040516020818303038152906040525b915050919050565b600080611a8683611ab0565b9050670de0b6b3a76400008482611a9d9190612d81565b611aa79190612df2565b91505092915050565b6000808273ffffffffffffffffffffffffffffffffffffffff1663feaf968c6040518163ffffffff1660e01b815260040160a060405180830381865afa158015611afe573d6000803e3d6000fd5b505050506040513d601f19601f82011682018060405250810190611b2291906130e9565b5050509150506402540be40081611b399190613164565b915050919050565b60007f01ffc9a7000000000000000000000000000000000000000000000000000000007bffffffffffffffffffffffffffffffffffffffffffffffffffffffff1916827bffffffffffffffffffffffffffffffffffffffffffffffffffffffff1916149050919050565b60006002600083815260200190815260200160002060009054906101000a900473ffffffffffffffffffffffffffffffffffffffff169050919050565b8080611c215750600073ffffffffffffffffffffffffffffffffffffffff168273ffffffffffffffffffffffffffffffffffffffff1614155b15611d55576000611c31846110f3565b9050600073ffffffffffffffffffffffffffffffffffffffff168373ffffffffffffffffffffffffffffffffffffffff1614158015611c9c57508273ffffffffffffffffffffffffffffffffffffffff168173ffffffffffffffffffffffffffffffffffffffff1614155b8015611caf5750611cad8184610ea8565b155b15611cf157826040517fa9fbf51f000000000000000000000000000000000000000000000000000000008152600401611ce891906125ef565b60405180910390fd5b8115611d5357838573ffffffffffffffffffffffffffffffffffffffff168273ffffffffffffffffffffffffffffffffffffffff167f8c5be1e5ebec7d5bd14f71427d1e84f3dd0314c0f7b2291e5b200ac8c7c3b92560405160405180910390a45b505b836004600085815260200190815260200160002060006101000a81548173ffffffffffffffffffffffffffffffffffffffff021916908373ffffffffffffffffffffffffffffffffffffffff16021790555050505050565b6000806040518060600160405280603c60ff168152602001605a60ff168152602001606460ff1660ff1681525090506000805b6003811015611e52578160ff168560ff1610158015611e1b5750828160038110611e0d57611e0c612e57565b5b602002015160ff168560ff16105b15611e2b57809350505050611e90565b828160038110611e3e57611e3d612e57565b5b602002015191508080600101915050611de0565b50836040517f949b9a65000000000000000000000000000000000000000000000000000000008152600401611e8791906128a9565b60405180910390fd5b919050565b611eaf8282604051806020016040528060008152506120a1565b5050565b80600660008481526020019081526020016000209081611ed39190613373565b507ff8e1a15aba9398e019f0b49df1a4fde98ee17ae345cb5f6b5e2c27f5033e8ce782604051611f0391906128a9565b60405180910390a15050565b611f1a8383836120bd565b611fce57600073ffffffffffffffffffffffffffffffffffffffff168373ffffffffffffffffffffffffffffffffffffffff1603611f8f57806040517f7e273289000000000000000000000000000000000000000000000000000000008152600401611f8691906128a9565b60405180910390fd5b81816040517f177e802f000000000000000000000000000000000000000000000000000000008152600401611fc5929190613445565b60405180910390fd5b505050565b606060006001611fe28461217e565b01905060008167ffffffffffffffff8111156120015761200061267b565b5b6040519080825280601f01601f1916602001820160405280156120335781602001600182028036833780820191505090505b509050600082602001820190505b600115612096578080600190039150507f3031323334353637383961626364656600000000000000000000000000000000600a86061a8153600a858161208a57612089612dc3565b5b04945060008503612041575b819350505050919050565b6120ab83836122d1565b6120b86000848484611843565b505050565b60008073ffffffffffffffffffffffffffffffffffffffff168373ffffffffffffffffffffffffffffffffffffffff161415801561217557508273ffffffffffffffffffffffffffffffffffffffff168473ffffffffffffffffffffffffffffffffffffffff16148061213657506121358484610ea8565b5b8061217457508273ffffffffffffffffffffffffffffffffffffffff1661215c8361117b565b73ffffffffffffffffffffffffffffffffffffffff16145b5b90509392505050565b600080600090507a184f03e93ff9f4daa797ed6e38ed64bf6a1f01000000000000000083106121dc577a184f03e93ff9f4daa797ed6e38ed64bf6a1f01000000000000000083816121d2576121d1612dc3565b5b0492506040810190505b6d04ee2d6d415b85acef81000000008310612219576d04ee2d6d415b85acef8100000000838161220f5761220e612dc3565b5b0492506020810190505b662386f26fc10000831061224857662386f26fc10000838161223e5761223d612dc3565b5b0492506010810190505b6305f5e1008310612271576305f5e100838161226757612266612dc3565b5b0492506008810190505b612710831061229657612710838161228c5761228b612dc3565b5b0492506004810190505b606483106122b957606483816122af576122ae612dc3565b5b0492506002810190505b600a83106122c8576001810190505b80915050919050565b600073ffffffffffffffffffffffffffffffffffffffff168273ffffffffffffffffffffffffffffffffffffffff16036123435760006040517f64a0ae9200000000000000000000000000000000000000000000000000000000815260040161233a91906125ef565b60405180910390fd5b60006123518383600061136d565b9050600073ffffffffffffffffffffffffffffffffffffffff168173ffffffffffffffffffffffffffffffffffffffff16146123c55760006040517f73c6ac6e0000000000000000000000000000000000000000000000000000000081526004016123bc91906125ef565b60405180910390fd5b505050565b6000604051905090565b600080fd5b600080fd5b60007fffffffff0000000000000000000000000000000000000000000000000000000082169050919050565b612413816123de565b811461241e57600080fd5b50565b6000813590506124308161240a565b92915050565b60006020828403121561244c5761244b6123d4565b5b600061245a84828501612421565b91505092915050565b60008115159050919050565b61247881612463565b82525050565b6000602082019050612493600083018461246f565b92915050565b600081519050919050565b600082825260208201905092915050565b60005b838110156124d35780820151818401526020810190506124b8565b60008484015250505050565b6000601f19601f8301169050919050565b60006124fb82612499565b61250581856124a4565b93506125158185602086016124b5565b61251e816124df565b840191505092915050565b6000602082019050818103600083015261254381846124f0565b905092915050565b6000819050919050565b61255e8161254b565b811461256957600080fd5b50565b60008135905061257b81612555565b92915050565b600060208284031215612597576125966123d4565b5b60006125a58482850161256c565b91505092915050565b600073ffffffffffffffffffffffffffffffffffffffff82169050919050565b60006125d9826125ae565b9050919050565b6125e9816125ce565b82525050565b600060208201905061260460008301846125e0565b92915050565b612613816125ce565b811461261e57600080fd5b50565b6000813590506126308161260a565b92915050565b6000806040838503121561264d5761264c6123d4565b5b600061265b85828601612621565b925050602061266c8582860161256c565b9150509250929050565b600080fd5b7f4e487b7100000000000000000000000000000000000000000000000000000000600052604160045260246000fd5b6126b3826124df565b810181811067ffffffffffffffff821117156126d2576126d161267b565b5b80604052505050565b60006126e56123ca565b90506126f182826126aa565b919050565b600067ffffffffffffffff8211156127115761271061267b565b5b602082029050602081019050919050565b600080fd5b600061273a612735846126f6565b6126db565b9050808382526020820190506020840283018581111561275d5761275c612722565b5b835b818110156127865780612772888261256c565b84526020840193505060208101905061275f565b5050509392505050565b600082601f8301126127a5576127a4612676565b5b81356127b5848260208601612727565b91505092915050565b600080604083850312156127d5576127d46123d4565b5b60006127e38582860161256c565b925050602083013567ffffffffffffffff811115612804576128036123d9565b5b61281085828601612790565b9150509250929050565b600080600060608486031215612833576128326123d4565b5b600061284186828701612621565b935050602061285286828701612621565b92505060406128638682870161256c565b9150509250925092565b600060208284031215612883576128826123d4565b5b600061289184828501612621565b91505092915050565b6128a38161254b565b82525050565b60006020820190506128be600083018461289a565b92915050565b60006060820190506128d9600083018661289a565b6128e6602083018561289a565b6128f360408301846125e0565b949350505050565b61290481612463565b811461290f57600080fd5b50565b600081359050612921816128fb565b92915050565b6000806040838503121561293e5761293d6123d4565b5b600061294c85828601612621565b925050602061295d85828601612912565b9150509250929050565b600080fd5b600067ffffffffffffffff8211156129875761298661267b565b5b612990826124df565b9050602081019050919050565b82818337600083830152505050565b60006129bf6129ba8461296c565b6126db565b9050828152602081018484840111156129db576129da612967565b5b6129e684828561299d565b509392505050565b600082601f830112612a0357612a02612676565b5b8135612a138482602086016129ac565b91505092915050565b60008060008060808587031215612a3657612a356123d4565b5b6000612a4487828801612621565b9450506020612a5587828801612621565b9350506040612a668782880161256c565b925050606085013567ffffffffffffffff811115612a8757612a866123d9565b5b612a93878288016129ee565b91505092959194509250565b60008060408385031215612ab657612ab56123d4565b5b6000612ac485828601612621565b9250506020612ad585828601612621565b9150509250929050565b6000819050919050565b612af281612adf565b82525050565b600067ffffffffffffffff82169050919050565b612b1581612af8565b82525050565b600061ffff82169050919050565b612b3281612b1b565b82525050565b600063ffffffff82169050919050565b612b5181612b38565b82525050565b600060a082019050612b6c6000830188612ae9565b612b796020830187612b0c565b612b866040830186612b29565b612b936060830185612b48565b612ba06080830184612b48565b9695505050505050565b600081519050612bb981612555565b92915050565b600060208284031215612bd557612bd46123d4565b5b6000612be384828501612baa565b91505092915050565b7f4e487b7100000000000000000000000000000000000000000000000000000000600052602260045260246000fd5b60006002820490506001821680612c3357607f821691505b602082108103612c4657612c45612bec565b5b50919050565b6000604082019050612c6160008301856125e0565b612c6e60208301846125e0565b9392505050565b6000606082019050612c8a60008301866125e0565b612c97602083018561289a565b612ca460408301846125e0565b949350505050565b600081905092915050565b50565b6000612cc7600083612cac565b9150612cd282612cb7565b600082019050919050565b6000612ce882612cba565b9150819050919050565b600081905092915050565b6000612d0882612499565b612d128185612cf2565b9350612d228185602086016124b5565b80840191505092915050565b6000612d3a8285612cfd565b9150612d468284612cfd565b91508190509392505050565b7f4e487b7100000000000000000000000000000000000000000000000000000000600052601160045260246000fd5b6000612d8c8261254b565b9150612d978361254b565b9250828202612da58161254b565b91508282048414831517612dbc57612dbb612d52565b5b5092915050565b7f4e487b7100000000000000000000000000000000000000000000000000000000600052601260045260246000fd5b6000612dfd8261254b565b9150612e088361254b565b925082612e1857612e17612dc3565b5b828204905092915050565b6000612e2e8261254b565b9150612e398361254b565b9250828201905080821115612e5157612e50612d52565b5b92915050565b7f4e487b7100000000000000000000000000000000000000000000000000000000600052603260045260246000fd5b6000612e918261254b565b9150612e9c8361254b565b925082612eac57612eab612dc3565b5b828206905092915050565b60008190508160005260206000209050919050565b60008154612ed981612c1b565b612ee381866124a4565b94506001821660008114612efe5760018114612f1457612f47565b60ff198316865281151560200286019350612f47565b612f1d85612eb7565b60005b83811015612f3f57815481890152600182019150602081019050612f20565b808801955050505b50505092915050565b6000606082019050612f6560008301866125e0565b612f72602083018561289a565b8181036040830152612f848184612ecc565b9050949350505050565b600081519050919050565b600082825260208201905092915050565b6000612fb582612f8e565b612fbf8185612f99565b9350612fcf8185602086016124b5565b612fd8816124df565b840191505092915050565b6000608082019050612ff860008301876125e0565b61300560208301866125e0565b613012604083018561289a565b81810360608301526130248184612faa565b905095945050505050565b60008151905061303e8161240a565b92915050565b60006020828403121561305a576130596123d4565b5b60006130688482850161302f565b91505092915050565b600069ffffffffffffffffffff82169050919050565b61309081613071565b811461309b57600080fd5b50565b6000815190506130ad81613087565b92915050565b6000819050919050565b6130c6816130b3565b81146130d157600080fd5b50565b6000815190506130e3816130bd565b92915050565b600080600080600060a08688031215613105576131046123d4565b5b60006131138882890161309e565b9550506020613124888289016130d4565b945050604061313588828901612baa565b935050606061314688828901612baa565b92505060806131578882890161309e565b9150509295509295909350565b600061316f826130b3565b915061317a836130b3565b9250828202613188816130b3565b91507f800000000000000000000000000000000000000000000000000000000000000084146000841216156131c0576131bf612d52565b5b82820584148315176131d5576131d4612d52565b5b5092915050565b60006020601f8301049050919050565b600082821b905092915050565b6000600883026132297fffffffffffffffffffffffffffffffffffffffffffffffffffffffffffffffff826131ec565b61323386836131ec565b95508019841693508086168417925050509392505050565b6000819050919050565b600061327061326b6132668461254b565b61324b565b61254b565b9050919050565b6000819050919050565b61328a83613255565b61329e61329682613277565b8484546131f9565b825550505050565b600090565b6132b36132a6565b6132be818484613281565b505050565b5b818110156132e2576132d76000826132ab565b6001810190506132c4565b5050565b601f821115613327576132f881612eb7565b613301846131dc565b81016020851015613310578190505b61332461331c856131dc565b8301826132c3565b50505b505050565b600082821c905092915050565b600061334a6000198460080261332c565b1980831691505092915050565b60006133638383613339565b9150826002028217905092915050565b61337c82612499565b67ffffffffffffffff8111156133955761339461267b565b5b61339f8254612c1b565b6133aa8282856132e6565b600060209050601f8311600181146133dd57600084156133cb578287015190505b6133d58582613357565b86555061343d565b601f1984166133eb86612eb7565b60005b82811015613413578489015182556001820191506020850194506020810190506133ee565b86831015613430578489015161342c601f891682613339565b8355505b6001600288020188555050505b505050505050565b600060408201905061345a60008301856125e0565b613467602083018461289a565b939250505056fea264697066735822122026ad49f5b5ca6c7c5f7e2c4bda8118e748ae0644c6f573a49b0afc414ef04c4864736f6c63430008170033",
  "devdoc": {
    "errors": {
      "ERC721IncorrectOwner(address,uint256,address)": [
        {
          "details": "Indicates an error related to the ownership over a particular token. Used in transfers.",
          "params": {
            "owner": "Address of the current owner of a token.",
            "sender": "Address whose tokens are being transferred.",
            "tokenId": "Identifier number of a token."
          }
        }
      ],
      "ERC721InsufficientApproval(address,uint256)": [
        {
          "details": "Indicates a failure with the `operator`s approval. Used in transfers.",
          "params": {
            "operator": "Address that may be allowed to operate on tokens without being their owner.",
            "tokenId": "Identifier number of a token."
          }
        }
      ],
      "ERC721InvalidApprover(address)": [
        {
          "details": "Indicates a failure with the `approver` of a token to be approved. Used in approvals.",
          "params": {
            "approver": "Address initiating an approval operation."
          }
        }
      ],
      "ERC721InvalidOperator(address)": [
        {
          "details": "Indicates a failure with the `operator` to be approved. Used in approvals.",
          "params": {
            "operator": "Address that may be allowed to operate on tokens without being their owner."
          }
        }
      ],
      "ERC721InvalidOwner(address)": [
        {
          "details": "Indicates that an address can't be an owner. For example, `address(0)` is a forbidden owner in EIP-20. Used in balance queries.",
          "params": {
            "owner": "Address of the current owner of a token."
          }
        }
      ],
      "ERC721InvalidReceiver(address)": [
        {
          "details": "Indicates a failure with the token `receiver`. Used in transfers.",
          "params": {
            "receiver": "Address to which tokens are being transferred."
          }
        }
      ],
      "ERC721InvalidSender(address)": [
        {
          "details": "Indicates a failure with the token `sender`. Used in transfers.",
          "params": {
            "sender": "Address whose tokens are being transferred."
          }
        }
      ],
      "ERC721NonexistentToken(uint256)": [
        {
          "details": "Indicates a `tokenId` whose `owner` is the zero address.",
          "params": {
            "tokenId": "Identifier number of a token."
          }
        }
      ],
      "OwnableInvalidOwner(address)": [
        {
          "details": "The owner is not a valid owner account. (eg. `address(0)`)"
        }
      ],
      "OwnableUnauthorizedAccount(address)": [
        {
          "details": "The caller account is not authorized to perform an operation."
        }
      ]
    },
    "events": {
      "Approval(address,address,uint256)": {
        "details": "Emitted when `owner` enables `approved` to manage the `tokenId` token."
      },
      "ApprovalForAll(address,address,bool)": {
        "details": "Emitted when `owner` enables or disables (`approved`) `operator` to manage all of its assets."
      },
      "BatchMetadataUpdate(uint256,uint256)": {
        "details": "This event emits when the metadata of a range of tokens is changed. So that the third-party platforms such as NFT market could timely update the images and related attributes of the NFTs."
      },
      "MetadataUpdate(uint256)": {
        "details": "This event emits when the metadata of a token is changed. So that the third-party platforms such as NFT market could timely update the images and related attributes of the NFT."
      },
      "Transfer(address,address,uint256)": {
        "details": "Emitted when `tokenId` token is transferred from `from` to `to`."
      }
    },
    "kind": "dev",
    "methods": {
      "approve(address,uint256)": {
        "details": "See {IERC721-approve}."
      },
      "balanceOf(address)": {
        "details": "See {IERC721-balanceOf}."
      },
      "getApproved(uint256)": {
        "details": "See {IERC721-getApproved}."
      },
      "isApprovedForAll(address,address)": {
        "details": "See {IERC721-isApprovedForAll}."
      },
      "name()": {
        "details": "See {IERC721Metadata-name}."
      },
      "owner()": {
        "details": "Returns the address of the current owner."
      },
      "ownerOf(uint256)": {
        "details": "See {IERC721-ownerOf}."
      },
      "renounceOwnership()": {
        "details": "Leaves the contract without owner. It will not be possible to call `onlyOwner` functions. Can only be called by the current owner. NOTE: Renouncing ownership will leave the contract without an owner, thereby disabling any functionality that is only available to the owner."
      },
      "safeTransferFrom(address,address,uint256)": {
        "details": "See {IERC721-safeTransferFrom}."
      },
      "safeTransferFrom(address,address,uint256,bytes)": {
        "details": "See {IERC721-safeTransferFrom}."
      },
      "setApprovalForAll(address,bool)": {
        "details": "See {IERC721-setApprovalForAll}."
      },
      "supportsInterface(bytes4)": {
        "details": "See {IERC165-supportsInterface}"
      },
      "symbol()": {
        "details": "See {IERC721Metadata-symbol}."
      },
      "tokenURI(uint256)": {
        "details": "See {IERC721Metadata-tokenURI}."
      },
      "transferFrom(address,address,uint256)": {
        "details": "See {IERC721-transferFrom}."
      },
      "transferOwnership(address)": {
        "details": "Transfers ownership of the contract to a new account (`newOwner`). Can only be called by the current owner."
      }
    },
    "version": 1
  },
  "userdoc": {
    "kind": "user",
    "methods": {},
    "version": 1
  },
  "storageLayout": {
    "storage": [
      {
        "astId": 549,
        "contract": "contracts/RandomIPFS.sol:RandomIPFSNFT",
        "label": "_name",
        "offset": 0,
        "slot": "0",
        "type": "t_string_storage"
      },
      {
        "astId": 551,
        "contract": "contracts/RandomIPFS.sol:RandomIPFSNFT",
        "label": "_symbol",
        "offset": 0,
        "slot": "1",
        "type": "t_string_storage"
      },
      {
        "astId": 555,
        "contract": "contracts/RandomIPFS.sol:RandomIPFSNFT",
        "label": "_owners",
        "offset": 0,
        "slot": "2",
        "type": "t_mapping(t_uint256,t_address)"
      },
      {
        "astId": 559,
        "contract": "contracts/RandomIPFS.sol:RandomIPFSNFT",
        "label": "_balances",
        "offset": 0,
        "slot": "3",
        "type": "t_mapping(t_address,t_uint256)"
      },
      {
        "astId": 563,
        "contract": "contracts/RandomIPFS.sol:RandomIPFSNFT",
        "label": "_tokenApprovals",
        "offset": 0,
        "slot": "4",
        "type": "t_mapping(t_uint256,t_address)"
      },
      {
        "astId": 569,
        "contract": "contracts/RandomIPFS.sol:RandomIPFSNFT",
        "label": "_operatorApprovals",
        "offset": 0,
        "slot": "5",
        "type": "t_mapping(t_address,t_mapping(t_address,t_bool))"
      },
      {
        "astId": 1688,
        "contract": "contracts/RandomIPFS.sol:RandomIPFSNFT",
        "label": "_tokenURIs",
        "offset": 0,
        "slot": "6",
        "type": "t_mapping(t_uint256,t_string_storage)"
      },
      {
        "astId": 208,
        "contract": "contracts/RandomIPFS.sol:RandomIPFSNFT",
        "label": "_owner",
        "offset": 0,
        "slot": "7",
        "type": "t_address"
      },
      {
        "astId": 3405,
        "contract": "contracts/RandomIPFS.sol:RandomIPFSNFT",
        "label": "s_Request_For_Minting",
        "offset": 0,
        "slot": "8",
        "type": "t_mapping(t_uint256,t_address)"
      },
      {
        "astId": 3407,
        "contract": "contracts/RandomIPFS.sol:RandomIPFSNFT",
        "label": "s_tokenId",
        "offset": 0,
        "slot": "9",
        "type": "t_uint256"
      },
      {
        "astId": 3411,
        "contract": "contracts/RandomIPFS.sol:RandomIPFSNFT",
        "label": "s_IPFS_Uri",
        "offset": 0,
        "slot": "10",
        "type": "t_array(t_string_storage)3_storage"
      }
    ],
    "types": {
      "t_address": {
        "encoding": "inplace",
        "label": "address",
        "numberOfBytes": "20"
      },
      "t_array(t_string_storage)3_storage": {
        "base": "t_string_storage",
        "encoding": "inplace",
        "label": "string[3]",
        "numberOfBytes": "96"
      },
      "t_bool": {
        "encoding": "inplace",
        "label": "bool",
        "numberOfBytes": "1"
      },
      "t_mapping(t_address,t_bool)": {
        "encoding": "mapping",
        "key": "t_address",
        "label": "mapping(address => bool)",
        "numberOfBytes": "32",
        "value": "t_bool"
      },
      "t_mapping(t_address,t_mapping(t_address,t_bool))": {
        "encoding": "mapping",
        "key": "t_address",
        "label": "mapping(address => mapping(address => bool))",
        "numberOfBytes": "32",
        "value": "t_mapping(t_address,t_bool)"
      },
      "t_mapping(t_address,t_uint256)": {
        "encoding": "mapping",
        "key": "t_address",
        "label": "mapping(address => uint256)",
        "numberOfBytes": "32",
        "value": "t_uint256"
      },
      "t_mapping(t_uint256,t_address)": {
        "encoding": "mapping",
        "key": "t_uint256",
        "label": "mapping(uint256 => address)",
        "numberOfBytes": "32",
        "value": "t_address"
      },
      "t_mapping(t_uint256,t_string_storage)": {
        "encoding": "mapping",
        "key": "t_uint256",
        "label": "mapping(uint256 => string)",
        "numberOfBytes": "32",
        "value": "t_string_storage"
      },
      "t_string_storage": {
        "encoding": "bytes",
        "label": "string",
        "numberOfBytes": "32"
      },
      "t_uint256": {
        "encoding": "inplace",
        "label": "uint256",
        "numberOfBytes": "32"
      }
    }
  }
}